:0200000480007A
:100000006F00C0006F20402E6F20002E9300000074
:10001000130100009301000013020000930200008E
:100020001303000093030000130400009304000076
:10003000130500009305000013060000930600005E
:100040001307000093070000130800009308000046
:100050001309000093090000130A0000930A00002E
:10006000130B0000930B0000130C0000930C000016
:10007000130D0000930D0000130E0000930E0000FE
:10008000130F0000930F00009702000093820201FB
:10009000739052307350447497020000938202F7B9
:1000A0007390523017A100001301C1ECF32240F10C
:1000B0009392C2003301510073100134EF201021DC
:1000C00017350000130505A26F20D00283224508D2
:1000D0007390121483204500032185008321C500FD
:1000E0000322050183224501032385018323C501E2
:1000F00003240502832445028325C5020326050344
:1001000083264503032785038327C50303280504A6
:1001100083284504032985048329C504032A05058A
:10012000832A4505032B8505832BC505032C05066E
:10013000832C4506032D8506832DC506032E050752
:10014000832E4507032F8507832FC50703258502C7
:100150007300201073110114232211002326310093
:1001600023284100232A5100232C6100232E7100F3
:1001700023208102232291022324A1022326B102FB
:100180002328C102232AD102232CE102232EF102CB
:1001900023200105232211052324210523263105CF
:1001A00023284105232A5105232C6105232E71059F
:1001B00023208107232291072324A1072326B107A7
:1001C0002328C107232AD107232CE107232EF10777
:1001D000F312011423245100F322001023205108AC
:1001E000F322101423225108F3223014232451083F
:1001F000F322201423265108130501006F20C03F6D
:1010000000000000000000000000000000000000E0
:1010100000000000000000000000000000000000D0
:1010200000000000000000000000000000000000C0
:1010300000000000000000000000000000000000B0
:081040000000000000000000A8
:10200000B3E7C500B367F50093F73700B306C50023
:10201000638407023386C50093070500637ED502FB
:1020200003C705009385150093871700A38FE7FE6C
:10203000E318B6FE67800000E37ED5FE9307050037
:1020400003A70500938747009385450023AEE7FE6D
:10205000E3E8D7FE6780000067800000B367C50033
:1020600093F737003306C5006380070293F5F50F39
:10207000930705006370C50493871700A38FB7FE0D
:10208000E31CF6FE6780000093F5F50F13978500BB
:102090003307B700931707013307F700E374C5FE52
:1020A000930705009387470023AEE7FEE3ECC7FEE6
:1020B000678000006780000083470500638E07008B
:1020C0009307050003C7170093871700E31C07FE5B
:1020D0003385A7406780000013050000678000007B
:1020E00083470500938515001305150003C7F5FF09
:1020F00063880700E386E7FE3385E74067800000DA
:10210000930700006FF05FFFB367B50093F73700E8
:10211000639E07021378C6FF330805016378050341
:10212000930705006F0000019387470093854500E2
:1021300063F8070183A6070003A70500E386E6FE10
:102140003385A7403306A640138507003386C500B4
:102150006F00400103C705008347F5FF9385150015
:10216000639AE70013051500E396C5FE130500000A
:10217000678000003385E740678000009307050013
:1021800003C705009387170093851500A38FE7FE0B
:10219000E31807FE6780000003470500930600026E
:1021A000930705006318D70003C71700938717002C
:1021B000E30CD7FE9306D002630ED7049306B00259
:1021C0006300D70483C6070093050000638C0604F0
:1021D000130500009387170013172500138606FDCB
:1021E00083C607003307A700131717003305E6005F
:1021F000E39206FE638A05023305A0406780000073
:1022000083C6170093871700638E060093050000AE
:102210006FF01FFC83C6170093051000938717000B
:10222000E39806FA13050000678000008345050067
:102230006380050697F6FFFF9386C6DC17F6FFFF5F
:10224000130646E003A7060083A74600138805008F
:10225000130515003367F700B70801016302070291
:10226000130700002320E600930700002322F60056
:1022700003A7060083A746003367F700E31207FEB3
:1022800023A0060123A2160183450500E39C05FA5D
:102290006780000097F6FFFF9386C6D603A7060067
:1022A00083A74600130805009358F5413367F700EC
:1022B0006306070217F6FFFF1306C6D813070000D0
:1022C0002320E600930700002322F60003A7060060
:1022D00083A746003367F700E31207FE23A0060139
:1022E00023A216016F000000130101FF13059034B3
:1022F00023261100EFF01FFA130101FE9306C1001F
:102300001307B101130390006F00800013870700CB
:102310009377F500B337F300B307F04093F77702F4
:102320001376F50093870703B387C7002300F700F0
:102330001396C501135545009307F7FF3365A600B3
:1023400093D54500E394E6FC0345C100230E01004C
:10235000630205069385060017F6FFFF130686CE77
:1023600097F6FFFF938606CA03A7060083A74600D9
:1023700013080500938515003367F700B7080101BE
:1023800063020702130700002320E6009307000002
:102390002322F60003A7060083A746003367F70051
:1023A000E31207FE03C5050023A0060123A21601C0
:1023B000E31C05FA1301010267800000130101FD0F
:1023C0009307100037F7FFFF2326F10023261102A1
:1023D00023240100B306E500B7E7030023248102AC
:1023E0002322910223202103232E310163F6F61AC2
:1023F0009359C5009384094017290000130989C027
:1024000093972400B307F90083A707003374E5000E
:10241000639A071017470000130707BF232C4101D9
:10242000032A0700232A510163040A1A83274A005A
:102430009746000083A606BD2320F7006388D714C3
:102440001306C1009305810013050400832A0A00C6
:10245000EF008068631C051093D6CA009396A6000F
:1024600093E6F60193972400B307F90013E7060CEF
:1024700023A0E7007300041297170000938787B822
:1024800093993900B387370103A70700631C07142A
:1024900003270A00B705040023A0E70003274A002A
:1024A00023A2E700F3A50510B707C0FFB307F400A8
:1024B00037160000130704003386C70003A3070084
:1024C00083A8470003A8870003A5C700232067004F
:1024D00023221701232407012326A700938707013E
:1024E00013070701E39CC7FC739005109397240022
:1024F000B304F90023A0D400730004120F100000ED
:10250000032481028320C102032A8101832A41011D
:1025100083244102032901028329C101130101031C
:102520006780000013F70704630E070413F707081A
:10253000631207081307F00093E70708639CE5069A
:1025400093942400B304990023A0F40073000412B0
:10255000032481028320C102832441020329010252
:102560008329C101130101036780000083260A004B
:102570008327810093D6C6009396A600B3E6F600A3
:102580006FF05FEE93E707046FF09FFB9747000043
:1025900023AA07A66FF0DFEA170500001305855B85
:1025A000232C4101232A5101EFF05FC813053000AD
:1025B000EFF05FCE170500001305855E232C410167
:1025C000232A5101EFF09FC613053000EFF09FCC96
:1025D0001705000013054561EFF05FC513053000D6
:1025E000EFF05FCB1705000013058561EFF01FC406
:1025F00013053000EFF01FCA130101FB23248104EF
:102600002326110413040500EF00804C631205100B
:102610008325C408930780006386F5149307200080
:10262000638AF502938745FF130710006376F7006E
:102630009307F0006398F52603258408EFF01FD870
:1026400013050400032481048320C1041301010540
:102650006FD0DFA703274408937737006394070CF4
:1026600003270700EF0780007310300083A70700DF
:102670002322910423202105232E3103232C4103FF
:10268000232A510323286103232671032324810372
:10269000232291032320A103232EB1016300F70815
:1026A00013051004970500009385455997F6FFFF21
:1026B0009386469517F6FFFF1306C69803A70600F4
:1026C00083A7460013090500938515003367F700BB
:1026D000B709010163020702930700002320F600F7
:1026E000130800002322060103A7060083A7460063
:1026F0003367F700E31207FE03C5050023A0260198
:1027000023A23601E31C05FA13053000EFF09FB851
:1027100013050400EFD09F9B6FF09FEF130510008F
:10272000EFF05FB7170500001305855A23229104C7
:1027300023202105232E3103232C4103232A510377
:102740002328610323267103232481032322910379
:102750002320A103232EB101EFF05FAD130530005C
:10276000EFF05FB38327840223202105232C41034C
:10277000232A510323286103232671032324810381
:10278000232291032320A10323229104232E31032A
:10279000232EB1012326F10037190000971A0000FB
:1027A000938A4A86172D0000130DCD85B70C0400BF
:1027B000370CC0FF174A0000130ACA84974B000069
:1027C000938B8B8437FB03009357C9009399370091
:1027D00033873A0103270700630C070893870740F4
:1027E00093972700B307FD0083A4070093F7040421
:1027F0006380070AF3AD0C1033048901371600001B
:102800009305040013050900EFF01F90630405040D
:1028100093F404086386040CB7160000130709003C
:1028200093070400B306D9000328070003254700D7
:10283000832587000326C70023A0070123A2A70042
:1028400023A4B70023A6C700130707019387070136
:10285000E31CD7FCB3873A0173900D1003270A00DD
:1028600023A00700630007022322F7002320FA00B9
:10287000B71700003309F900E31869F50325C10013
:10288000EFF05FA12320FA0023A0FB006FF05FFEB2
:10289000170500001305453DEFF05F991305300063
:1028A000EFF05F9F170500001305C5442322910434
:1028B00023202105232E3103232C4103232A5103F6
:1028C00023286103232671032324810323229103F8
:1028D0002320A103232EB101EFF05F956FF0DFE21B
:1028E000170500001305853BEFF05F9413053000DA
:1028F000EFF05F9AF32740F16398071697250000E1
:1029000093854570130101F693D7C500232C8108E8
:102910009397A70013040500370600201715000041
:102920001305456E232E110893E717001306F60CC6
:102930009356C500370700802320F50023AEC5FE5F
:10294000B3E7E60073900718F32600186396D716CE
:102950001307F7FF9307F0019702000093824201EB
:10296000F39252307310073B7390073A73905230D2
:1029700097D7BF7F9387477E73905710F327003414
:102980003707C07FB387E70073900714B7B700001D
:102990009387071073902730B7E70100938707608C
:1029A00073900730735040309717C07F9387078527
:1029B00017370000232AF7649717C07F938707A370
:1029C000173700002320F76437030800B708C07FDB
:1029D0001717000013078782171E0000130E8EA121
:1029E00093079001930500001303F3039388880075
:1029F0001396F50193D61700B366D60033866700A9
:102A0000B3C7F600330817011316C6009397570093
:102A10002320C7002322070193F70702130787002B
:102A2000B3E7F60093D51500E314EEFC1306000996
:102A300093050000130501009717000023AA079AC9
:102A4000EFF0CFE1B70700803304F4001305010075
:102A500023228108EFD08FE78320C1090324810955
:102A60001301010A67800000B7B7080B370608009A
:102A70009387F785130700001306C6FF370500800C
:102A8000B7050040B3F6C700B386A60003A0060052
:102A90001318F70193D61700B366D800B3C7D70051
:102AA0009397E70133F8F500135717009387060053
:102AB0003367E8006FF01FFD17050000130545267A
:102AC000EFF0CFF613053000EFF0CFFC6780000089
:102AD00013050000678000001305000067800000F8
:102AE00093012000930000006F020001130000001A
:102AF000130000006F00000417010000130141FFE4
:102B0000631A410293013000930010006F004001EE
:102B10009380100093801000938010009380100029
:102B20009380100093801000930330006394700032
:102B3000631A30001395110063000500136515003A
:102B4000730000001305100073000000731000C034
:102B5000417373657274696F6E206661696C656438
:102B60003A2061646472203E3D202831554C203C5F
:102B70003C203132292026262061646472203C20CA
:102B8000282831203C3C2036292D3129202A202894
:102B900031554C203C3C203132290A004173736589
:102BA0007274696F6E206661696C65643A202128D1
:102BB00070745B315D5B616464722F2831554C2009
:102BC0003C3C203132295D202620307830383029B5
:102BD000202626206361757365203D3D2030786690
:102BE0000A000000417373657274696F6E2066613C
:102BF000696C65643A206E6F64650A0041737365A1
:102C00007274696F6E206661696C65643A207573D1
:102C100065725F6D617070696E675B616464722F6D
:102C20002831554C203C3C203132295D2E616464B2
:102C300072203D3D20300A00417373657274696FE4
:102C40006E206661696C65643A202122696C6C654E
:102C500067616C20696E737472756374696F6E223C
:102C60000A000000417373657274696F6E206661BB
:102C7000696C65643A2070745B315D5B6164647299
:102C80002F2831554C203C3C203132295D20262014
:102C900030783034300A0000417373657274696FA4
:102CA0006E206661696C65643A2070745B315D5BAF
:102CB000616464722F2831554C203C3C203132290C
:102CC0005D20262030783038300A0000417373656B
:102CD0007274696F6E206661696C65643A2074660F
:102CE0002D3E65706320252034203D3D20300A00B4
:102CF000417373657274696F6E206661696C656497
:102D00003A202122756E657870656374656420656C
:102D10007863657074696F6E220A00004173736591
:102D20007274696F6E206661696C65643A20212255
:102D3000756E737570706F727465642073617470F2
:082D4000206D6F6465220A009A
:040000058000000077
:00000001FF
